{"abi":[{"type":"constructor","inputs":[{"name":"entranceFee","type":"uint256","internalType":"uint256"},{"name":"interval","type":"uint256","internalType":"uint256"},{"name":"vrfCoordinator","type":"address","internalType":"address"},{"name":"gasLane","type":"bytes32","internalType":"bytes32"},{"name":"subscriptionId","type":"uint64","internalType":"uint64"},{"name":"callbackGasLimit","type":"uint32","internalType":"uint32"}],"stateMutability":"nonpayable"},{"type":"function","name":"checkUpkeep","inputs":[{"name":"","type":"bytes","internalType":"bytes"}],"outputs":[{"name":"upkeepNeeded","type":"bool","internalType":"bool"},{"name":"","type":"bytes","internalType":"bytes"}],"stateMutability":"view"},{"type":"function","name":"enterRaffle","inputs":[],"outputs":[],"stateMutability":"payable"},{"type":"function","name":"getEntranceFee","inputs":[],"outputs":[{"name":"","type":"uint256","internalType":"uint256"}],"stateMutability":"view"},{"type":"function","name":"getLastTimeStamp","inputs":[],"outputs":[{"name":"","type":"uint256","internalType":"uint256"}],"stateMutability":"view"},{"type":"function","name":"getLengthOfPlayers","inputs":[],"outputs":[{"name":"","type":"uint256","internalType":"uint256"}],"stateMutability":"view"},{"type":"function","name":"getRaffleState","inputs":[],"outputs":[{"name":"","type":"uint8","internalType":"enum Raffle.RaffleState"}],"stateMutability":"view"},{"type":"function","name":"getRecentWinner","inputs":[],"outputs":[{"name":"","type":"address","internalType":"address"}],"stateMutability":"view"},{"type":"function","name":"getplayers","inputs":[{"name":"indexOfPlayer","type":"uint256","internalType":"uint256"}],"outputs":[{"name":"","type":"address","internalType":"address"}],"stateMutability":"view"},{"type":"function","name":"performUpkeep","inputs":[{"name":"","type":"bytes","internalType":"bytes"}],"outputs":[],"stateMutability":"nonpayable"},{"type":"function","name":"rawFulfillRandomWords","inputs":[{"name":"requestId","type":"uint256","internalType":"uint256"},{"name":"randomWords","type":"uint256[]","internalType":"uint256[]"}],"outputs":[],"stateMutability":"nonpayable"},{"type":"event","name":"Enteredraffle","inputs":[{"name":"player","type":"address","indexed":true,"internalType":"address"}],"anonymous":false},{"type":"event","name":"WinnerPicked","inputs":[{"name":"winner","type":"address","indexed":true,"internalType":"address"}],"anonymous":false},{"type":"event","name":"requestedRaffleWinner","inputs":[{"name":"requestId","type":"uint256","indexed":true,"internalType":"uint256"}],"anonymous":false},{"type":"error","name":"OnlyCoordinatorCanFulfill","inputs":[{"name":"have","type":"address","internalType":"address"},{"name":"want","type":"address","internalType":"address"}]},{"type":"error","name":"Raffle__NotEnoughEthSent","inputs":[]},{"type":"error","name":"Raffle__RaffleNotOpen","inputs":[]},{"type":"error","name":"Raffle__TranferFailed","inputs":[]},{"type":"error","name":"Raffle__UpkeepNotNeeded","inputs":[{"name":"currentBalance","type":"uint256","internalType":"uint256"},{"name":"numPlayers","type":"uint256","internalType":"uint256"},{"name":"raffleState","type":"uint256","internalType":"uint256"}]}],"bytecode":{"object":"0x61016060405234801561001157600080fd5b50604051610ca3380380610ca383398101604081905261003091610087565b6001600160a01b0393909316608081905260a09590955260c09390935260e093909352610100929092526001600160401b03166101205263ffffffff1661014052426001556002805460ff60a01b19169055610112565b60008060008060008060c087890312156100a057600080fd5b86516020880151604089015191975095506001600160a01b03811681146100c657600080fd5b6060880151608089015191955093506001600160401b03811681146100ea57600080fd5b60a088015190925063ffffffff8116811461010457600080fd5b809150509295509295509295565b60805160a05160c05160e051610100516101205161014051610b2a610179600039600061045c01526000610425015260006103ff0152600061049a0152600061054301526000818160a501526102820152600081816101fe01526102400152610b2a6000f3fe6080604052600436106100915760003560e01c80634585e33b116100595780634585e33b1461013e578063473f1ddc1461015e5780636e04ff0d14610190578063942057de146101be578063c1c244e8146101de57600080fd5b806309bc33a7146100965780630ea3df38146100d8578063115cbaf5146100ed5780631fe543e3146101145780632cfcc53914610136575b600080fd5b3480156100a257600080fd5b507f00000000000000000000000000000000000000000000000000000000000000005b6040519081526020015b60405180910390f35b3480156100e457600080fd5b506000546100c5565b3480156100f957600080fd5b50600254600160a01b900460ff166040516100cf91906107e2565b34801561012057600080fd5b5061013461012f366004610851565b6101f3565b005b610134610280565b34801561014a57600080fd5b50610134610159366004610903565b61036b565b34801561016a57600080fd5b506002546001600160a01b03165b6040516001600160a01b0390911681526020016100cf565b34801561019c57600080fd5b506101b06101ab366004610975565b61053b565b6040516100cf929190610a0a565b3480156101ca57600080fd5b506101786101d9366004610a63565b6105e8565b3480156101ea57600080fd5b506001546100c5565b336001600160a01b037f000000000000000000000000000000000000000000000000000000000000000016146102725760405163073e64fd60e21b81523360048201526001600160a01b037f00000000000000000000000000000000000000000000000000000000000000001660248201526044015b60405180910390fd5b61027c8282610617565b5050565b7f00000000000000000000000000000000000000000000000000000000000000003410156102c15760405163246b904d60e01b815260040160405180910390fd5b6000600254600160a01b900460ff1660018111156102e1576102e16107cc565b146102ff5760405163349289c560e21b815260040160405180910390fd5b600080546001810182558180527f290decd9548b62a8d60345a988386fc84ba6bc95484008f6362f93160ef3e5630180546001600160a01b0319163390811790915560405190917f415d8fc806c34b1331dff6077242ef948fbb74c9db3d7bc2df217c06fd6d64ad91a2565b60006103856040518060200160405280600081525061053b565b509050806103db57600054600254479190600160a01b900460ff1660018111156103b1576103b16107cc565b604051632c2193d560e11b8152600481019390935260248301919091526044820152606401610269565b60028054600160a01b60ff60a01b199091161790556040516305d3b1d360e41b81527f000000000000000000000000000000000000000000000000000000000000000060048201527f000000000000000000000000000000000000000000000000000000000000000067ffffffffffffffff166024820152600360448201527f000000000000000000000000000000000000000000000000000000000000000063ffffffff166064820152600160848201526000906001600160a01b037f00000000000000000000000000000000000000000000000000000000000000001690635d3b1d309060a4016020604051808303816000875af11580156104e3573d6000803e3d6000fd5b505050506040513d601f19601f820116820180604052508101906105079190610a7c565b60405190915081907fe0abfa81226f1e2ce09ba287cbb4c241e89b2b891a389274bb7d9c46e344daf090600090a250505050565b6000606060007f0000000000000000000000000000000000000000000000000000000000000000600154426105709190610a95565b101590506000600260149054906101000a900460ff166001811115610597576105976107cc565b600054901591504715159015158380156105ae5750825b80156105b75750815b80156105c05750805b60408051808201909152600381526203078360ec1b6020820152909890975095505050505050565b60008082815481106105fc576105fc610abc565b6000918252602090912001546001600160a01b031692915050565b6000805482518390839061062d5761062d610abc565b602002602001015161063f9190610ad2565b9050600080828154811061065557610655610abc565b600091825260208083209190910154600280546001600160a81b0319166001600160a01b039092169182179055604080518481529283019081905291519093506106a0929190610752565b50426001556040516000906001600160a01b0383169047908381818185875af1925050503d80600081146106f0576040519150601f19603f3d011682016040523d82523d6000602084013e6106f5565b606091505b5050905080610717576040516322c146bd60e01b815260040160405180910390fd5b6040516001600160a01b038316907f5b690ec4a06fe979403046eaeea5b3ce38524683c3001f662c8b5a829632f7df90600090a25050505050565b8280548282559060005260206000209081019282156107a7579160200282015b828111156107a757825182546001600160a01b0319166001600160a01b03909116178255602090920191600190910190610772565b506107b39291506107b7565b5090565b5b808211156107b357600081556001016107b8565b634e487b7160e01b600052602160045260246000fd5b602081016002831061080457634e487b7160e01b600052602160045260246000fd5b91905290565b634e487b7160e01b600052604160045260246000fd5b604051601f8201601f1916810167ffffffffffffffff811182821017156108495761084961080a565b604052919050565b6000806040838503121561086457600080fd5b8235915060208084013567ffffffffffffffff8082111561088457600080fd5b818601915086601f83011261089857600080fd5b8135818111156108aa576108aa61080a565b8060051b91506108bb848301610820565b81815291830184019184810190898411156108d557600080fd5b938501935b838510156108f3578435825293850193908501906108da565b8096505050505050509250929050565b6000806020838503121561091657600080fd5b823567ffffffffffffffff8082111561092e57600080fd5b818501915085601f83011261094257600080fd5b81358181111561095157600080fd5b86602082850101111561096357600080fd5b60209290920196919550909350505050565b6000602080838503121561098857600080fd5b823567ffffffffffffffff808211156109a057600080fd5b818501915085601f8301126109b457600080fd5b8135818111156109c6576109c661080a565b6109d8601f8201601f19168501610820565b915080825286848285010111156109ee57600080fd5b8084840185840137600090820190930192909252509392505050565b82151581526000602060406020840152835180604085015260005b81811015610a4157858101830151858201606001528201610a25565b506000606082860101526060601f19601f830116850101925050509392505050565b600060208284031215610a7557600080fd5b5035919050565b600060208284031215610a8e57600080fd5b5051919050565b81810381811115610ab657634e487b7160e01b600052601160045260246000fd5b92915050565b634e487b7160e01b600052603260045260246000fd5b600082610aef57634e487b7160e01b600052601260045260246000fd5b50069056fea264697066735822122084efda6e6132eddf8e90442d7e1fb2f8330b207cc196c9f36cce28c6e74c646064736f6c63430008180033","linkReferences":{}},"methodIdentifiers":{"checkUpkeep(bytes)":"6e04ff0d","enterRaffle()":"2cfcc539","getEntranceFee()":"09bc33a7","getLastTimeStamp()":"c1c244e8","getLengthOfPlayers()":"0ea3df38","getRaffleState()":"115cbaf5","getRecentWinner()":"473f1ddc","getplayers(uint256)":"942057de","performUpkeep(bytes)":"4585e33b","rawFulfillRandomWords(uint256,uint256[])":"1fe543e3"},"id":31}